{
  "_format": "hh-sol-artifact-1",
  "contractName": "SimpleVerify",
  "sourceName": "contracts/SimpleVerify.sol",
  "abi": [
    {
      "inputs": [
        {
          "internalType": "contract UltraVerifier",
          "name": "_verifier",
          "type": "address"
        }
      ],
      "stateMutability": "nonpayable",
      "type": "constructor"
    },
    {
      "inputs": [],
      "name": "verifier",
      "outputs": [
        {
          "internalType": "contract UltraVerifier",
          "name": "",
          "type": "address"
        }
      ],
      "stateMutability": "view",
      "type": "function"
    },
    {
      "inputs": [
        {
          "internalType": "bytes",
          "name": "proof",
          "type": "bytes"
        },
        {
          "internalType": "bytes32[]",
          "name": "y",
          "type": "bytes32[]"
        }
      ],
      "name": "verifyEqual",
      "outputs": [
        {
          "internalType": "bool",
          "name": "",
          "type": "bool"
        }
      ],
      "stateMutability": "view",
      "type": "function"
    }
  ],
  "bytecode": "0x6080604052348015600f57600080fd5b50604051610416380380610416833981016040819052602c916050565b600080546001600160a01b0319166001600160a01b0392909216919091179055607e565b600060208284031215606157600080fd5b81516001600160a01b0381168114607757600080fd5b9392505050565b6103898061008d6000396000f3fe608060405234801561001057600080fd5b50600436106100365760003560e01c80632b7ac3f31461003b5780637d08867e14610085575b600080fd5b60005461005b9073ffffffffffffffffffffffffffffffffffffffff1681565b60405173ffffffffffffffffffffffffffffffffffffffff90911681526020015b60405180910390f35b6100986100933660046101bc565b6100a8565b604051901515815260200161007c565b600080546040517fea50d0e4000000000000000000000000000000000000000000000000000000008152829173ffffffffffffffffffffffffffffffffffffffff169063ea50d0e49061010590899089908990899060040161028f565b602060405180830381865afa158015610122573d6000803e3d6000fd5b505050506040513d601f19601f82011682018060405250810190610146919061032a565b9050806101b3576040517f08c379a000000000000000000000000000000000000000000000000000000000815260206004820152601260248201527f50726f6f66206973206e6f742076616c69640000000000000000000000000000604482015260640160405180910390fd5b95945050505050565b600080600080604085870312156101d257600080fd5b843567ffffffffffffffff8111156101e957600080fd5b8501601f810187136101fa57600080fd5b803567ffffffffffffffff81111561021157600080fd5b87602082840101111561022357600080fd5b60209182019550935085013567ffffffffffffffff81111561024457600080fd5b8501601f8101871361025557600080fd5b803567ffffffffffffffff81111561026c57600080fd5b8760208260051b840101111561028157600080fd5b949793965060200194505050565b604081528360408201528385606083013760006060858301015260007fffffffffffffffffffffffffffffffffffffffffffffffffffffffffffffffe0601f860116820160608382030160208401528360608201527f07ffffffffffffffffffffffffffffffffffffffffffffffffffffffffffffff84111561031157600080fd5b8360051b80866080840137016080019695505050505050565b60006020828403121561033c57600080fd5b8151801515811461034c57600080fd5b939250505056fea2646970667358221220ce46b176fbc37bf87a8266c6ef8b326b97284dbdd3166940285172a358d0813464736f6c634300081b0033",
  "linkReferences": {},
  "deployedLinkReferences": {}
}